:020000041000EA
:1000000000B5324B212058609868022188439860DF
:10001000D860186158612E4B002199600221596106
:100020000121F02299502B49196001219960352056
:1000300000F044F80222904214D00621196600F024
:1000400034F8196E01211966002018661A6600F04E
:100050002CF8196E196E196E052000F02FF8012189
:100060000842F9D1002199601B49196000215960AB
:100070001A491B48016001219960EB211966A021F2
:10008000196600F012F800219960164914480160C1
:100090000121996001BC002800D000471248134993
:1000A000086003C880F30888084703B5996A0420EC
:1000B0000142FBD001200142F8D103BD02B5186610
:1000C0001866FFF7F2FF186E186E02BD00000240BE
:1000D000000000180000070000035F00212200005C
:1000E000F4000018222000A00001001008ED00E03C
:1000F00000000000000000000000000074B24E7A12
:1001000000200420F7010010C3010010C5010010F9
:10011000C1010010C1010010C1010010C101001097
:10012000C1010010C1010010C1010010C701001081
:10013000C1010010C1010010C9010010CB01001065
:10014000CD010010CD010010CD010010CD01001037
:10015000CD010010CD010010CD010010CD01001027
:10016000CD010010CD010010CD010010CD01001017
:10017000CD010010CD010010CD010010CD01001007
:10018000CD010010CD010010CD010010CD010010F7
:10019000CD010010CD010010CD010010CD010010E7
:1001A000CD010010CD010010CD010010CD010010D7
:1001B000CD010010CD010010CD010010CD010010C7
:1001C00000BE00BE00BE00BE00BE00BEEFF3058054
:1001D000103800BEF2EB8871DC6100100062001084
:1001E0003402001090A31AE700201F49086006C8D7
:1001F00081F3088810471D48006800282FD10DA4FE
:100200000ECC002902D000F012F8F9E71849194A7B
:10021000002000E001C19142FCD1174988471749ED
:1002200088471749884700BEFDE701C901C29A42C5
:10023000FBD3704700620010C000002004030020C0
:1002400044640010000004200000042044640010F6
:10025000001004200010042000000000704709482E
:1002600003F03AFE0047000008ED00E0000000D077
:100270000803002044070020312C001085080010DE
:10028000ED2B00105756000006005250ABB36053E0
:10029000A060001006005250861C0302B0600010DF
:1002A000060052505422A29DB86000100500525022
:1002B000DE65F46844640010F8B5C04610B5064C1D
:1002C0002378002B07D1054B002B02D0044800E017
:1002D00000BF0123237010BD200400200000000097
:1002E000984E0010044B10B5002B03D0034904486E
:1002F00000E000BF10BDC046000000002404002044
:10030000984E0010304B1B68002B02D0013B2E4A48
:1003100013602E4B1B68002B02D0013B2B4A13604D
:100320002B4B1B68002B02D0013B294A1360294B41
:100330001B68002B0CD028490A68013A0A60002A81
:1003400006D10A00FA2149001160013B214A1360DD
:10035000224B1B68002B0CD021490A68013A0A6025
:10036000002A06D10A00FA2149001160013B1B4A0C
:1003700013601C4B1B68002B0CD01B490A68013A08
:100380000A60002A06D10A00FA2149001160013BE7
:10039000144A1360154B1B68002B02D0013B134A13
:1003A0001360134B1B68002B02D0013B104A1360F3
:1003B000104B1B68002B02D0013B0E4A13600E4A03
:1003C0001368013B136070473C0400204404002084
:1003D000480400204C0400201C070020500400208A
:1003E0002007002054040020240700205804002087
:1003F0005C040020600400204004002000B585B0AB
:10040000FA235B000A4A13600A4A13600A4A13601F
:1004100001F098FA094B029300230193084B0093D3
:10042000FA229200002301F0D3FB05B000BDC046C4
:1004300024070020200700201C07002008040020BB
:100440000503001080B582B000AF386079603A686B
:100450007B6810001900BD4602B080BD80B584B035
:1004600000AFF8603A607B603A687B68002B05DA81
:10047000074B084A08483F2102F0BCFBF9683A687C
:100480007B680A604B60C046BD4604B080BDC04674
:10049000984E0010504F0010B44E001080B584B03C
:1004A00000AF786001F03EFD02000B0008217918D2
:1004B0000800FFF7D3FF7968BA68FB680A604B60F1
:1004C0007868BD4604B080BDB0B584B000AFB860F8
:1004D000F9603A607B603A687B6810001900FFF7AA
:1004E000B1FF04000D00BA68FB6810001900FFF7A7
:1004F000A9FF02000B00A41A9D4122002B0010004E
:100500001900BD4604B0B0BD80B582B000AF7860C0
:10051000D0231B065A687B68DA401300012213407F
:100520005A1E9341DBB21800BD4602B080BD80B5B3
:1005300000AFD0231B065B681800BD4680BD80B5A8
:1005400082B000AF7860D0231B067A685A61C0463B
:10055000BD4602B080BD80B582B000AF7860D023C8
:100560001B067A689A61C046BD4602B080BD80B560
:1005700082B000AF78603960D0231B061A693B68EF
:100580005A40D0231B0679680A40DA61C046BD464E
:1005900002B080BD80B584B000AF78600A00FB1C5B
:1005A0001A7001227B689A401300FB60FB1C1B78C9
:1005B000002B04D0FB681800FFF7C1FF03E0FB68C5
:1005C0001800FFF7C8FFC046BD4604B080BD80B527
:1005D00082B000AF7860D0231B067A685A62C046AA
:1005E000BD4602B080BD80B582B000AF7860D02338
:1005F0001B067A689A62C046BD4602B080BD80B5CF
:1006000082B000AF78603960D0231B061A6A3B685D
:100610005A40D0231B0679680A40DA62C046BD46BC
:1006200002B080BD80B584B000AF78600A00FB1CCA
:100630001A7001227B689A401300FB60FB1C1B7838
:10064000002B04D0FB681800FFF7C1FF03E0FB6834
:100650001800FFF7C8FFC046BD4604B080BD80B596
:1006600082B000AF386079603B681800BD4602B0C8
:1006700080BD80B582B000AF386079603B681800FB
:10068000BD4602B080BD80B582B000AF38607960F1
:1006900079680A0000210B0013001800BD4602B063
:1006A00080BD80B582B000AF3860796079680A009B
:1006B00000210B0013001800BD4602B080BD80B5BC
:1006C00000AF0A20FFF720FF03001A000123534068
:1006D000DBB2002B01D0012300E000231800BD464F
:1006E00080BD000080B58CB000AF0823FB18180057
:1006F000FFF7D4FE15E01023FB181800FFF7CEFE1D
:100700003A697B69B868F968FFF7DEFE02000B0002
:10071000002B04DC05D136498A4200D801E00023D1
:1007200062E00A20FFF7F0FE031EE4D115E0182373
:10073000FB181800FFF7B2FEBA69FB69B868F968E0
:10074000FFF7C2FE02000B00002B04DC05D1294993
:100750008A4200D801E0002346E00A20FFF7D4FED9
:1007600003001A0001235340DBB2002BDFD13B0012
:100770001800FFF793FE28E02023FB181800FFF76E
:100780008DFE3A6A7B6A38687968FFF79DFE020041
:100790000B00002B1FDC02D117498A421BD82823EB
:1007A000FB181800FFF77AFEBA6AFB6AB868F968A6
:1007B000FFF78AFE02000B00002B04DC05D10D4977
:1007C0008A4200D801E000230EE00A20FFF79CFED9
:1007D000031ED1D1AAE7C04600E0C0460A20FFF7B9
:1007E00093FE031EF9D101231800BD460CB080BD55
:1007F0001F4E00004FC300000F27000080B582B0DD
:1008000000AF00237B6000233B602EE0FA22520001
:1008100000231000190001F0A5FAFFF750FF0300B4
:100820001900174A3B68D3180A1C1A707B685B00D2
:100830007B60134A3B68D3181B78002B03D07B687E
:10084000012213437B6001210420FFF7A3FE002156
:100850000420FFF79FFEFA22520000231000190027
:1008600001F080FA3B6801333B603B680E2BCDDD25
:100870007B681B031B0B1800BD4602B080BDC04641
:10088000F0040020F0B5D7B002AF04F0DFF8FA238F
:10089000DB00180001F092FADC4B180004F09AF823
:1008A00096239B01DA4A1900100001F03BFF022158
:1008B000042000F00FFA0221052000F00BFAFE23BD
:1008C000DB00180000F029FAFE23DB00F2211800FB
:1008D000FFF795FECF4B1800FFF785FECE4BA62500
:1008E0006D007A191360CD4BA4267600BA191360F7
:1008F000BB191A687B191B681100180002F062F915
:1009000002000B00A02149007818026043607B18A8
:100910001A685B6810001900FFF7ABFE0400A02105
:1009200049007B181A685B6810001900FFF7B9FED0
:100930000300BA19126879190968B94800932300AD
:1009400004F078F8B44B9E256D007A1913604223A9
:10095000FF339C267600BA1913607B191B68BA19FD
:1009600012681100180002F033F902000B00982100
:1009700049007818026043607B181A685B681000B1
:100980001900FFF76CFE0400982149007B181A68D3
:100990005B6810001900FFF776FE0300BA191268B1
:1009A000791909689E480093230004F043F8202336
:1009B000FB1896225200BA1813600B23942464008B
:1009C0003A191360974BA82252009B18DB19964ADC
:1009D00003CA03C304F080F93B191B68180000F038
:1009E00091F93B191B6801211800FFF71BFE02F06B
:1009F000CDF8031E04D10823FB18180004F0A2F957
:100A0000FFF7FCFC894B0121180002F0B3F8884B7A
:100A100064221A604020002101F0A4F900237B60C9
:100A2000F021F020FFF7A3FD824B14221A60824BC5
:100A300032221A600023BB6112E0FFF778FD02004A
:100A400080235B0013407B61BA69934205D07B69C8
:100A5000BB61794B32221A6002E0BB69002B04D0E3
:100A6000754B1B68002BE8D100E0C04602F03CF853
:100A700008243B19180004F099F93A198023590009
:100A8000962464003B191B68180001F06BFB3B19AE
:100A90001A686A4B1100180003F0CCFFBA69802372
:100AA0005B00134036D0634B1B68002B2FD05D4B8F
:100AB000A82149005B18DB195B795BB2DBB201331B
:100AC000DBB25AB2574B5B18DB195A71554B5B18A6
:100AD000DB195B795BB2172B04DD524B5B18DB191A
:100AE00000225A714F4BA82149005B18DB190022E4
:100AF000DA714C4B5B18DB1907229A56494B5B188D
:100B0000DB199A710823FB18180004F01BF9494BF4
:100B100014221A60434BA82040001B18DB195B7994
:100B20005BB2063B5A425341DBB23E4A1218D2191D
:100B3000927952B2033A51424A41D2B21340DBB2E7
:100B40001C00384B1B18DB19DB795BB20E22D80F67
:100B5000D1179A4248410300DBB2234008D09423C6
:100B60005B00FB181B6800211800FFF713FD07E06E
:100B700094235B00FB181B6801211800FFF70AFD96
:100B8000284BA82252009B18DB195B795BB20C2B17
:100B900008DD244B9B18DB195B795BB20C3B1B0116
:100BA000FB6108E01F4BA82252009B18DB195B7900
:100BB0005BB21B01FB611F4B1B68002B01D10023A3
:100BC000FB61FB69F02253401900F020FFF7CFFCD6
:100BD000144BA82252009B18DB195B795BB20C2BDB
:100BE0000DDD104B9B18DB19DB795BB2DBB21A0011
:100BF0000123134003D0F021F020FFF7B8FC0E4B87
:100C000064221A600123BB6129E0C046184F00101E
:100C1000008003400D03000040E20100BFFEFFFF23
:100C2000204F0010B8FEFFFF484F0010881300004F
:100C30003C0400204C040020580400203C4F0010CD
:100C4000FFF775FC020080235B0013407B61BA69EB
:100C5000934204D07B69BB611C4B64221A601B4B1E
:100C60001B68002BECD1FFF73DFD031E00D1DEE633
:100C7000FFF7C4FD03007B607B681B0A1F22134043
:100C8000922149007A1813607B683F22134090201C
:100C900040003A1813607B181B685AB20C4BA8210D
:100CA00049005B18DB195A713B181B685AB2084B94
:100CB0005B18DB199A710823FB18180004F042F83E
:100CC000024B64221A60C046B1E6C04658040020B8
:100CD000B8FEFFFF10B58300084A944663441C68C1
:100CE00040226240C02414408022520113431C6001
:100CF000C000034B9C466044416010BD04C00140ED
:100D00000040014010B501238340D02212069362B7
:100D100093610521FFF7DEFF10BD70B505000024CB
:100D200001E06D0801341D2C05D8EB07F9D5200032
:100D3000FFF7E8FFF5E770BD034B1B680220184082
:100D4000431E9841C0B2704700C00640EFF31080C8
:100D500072B6034B1B68002BFBD0BFF35F8F70474D
:100D60002C0100D0BFF35F8F024B00221A6080F38A
:100D7000108870472C0100D0F8B506000C00150053
:100D8000FFF7E4FFE308F718F15C07222240012394
:100D900093400B4205D1DBB20B433B70FFF7E2FF00
:100DA000F8BD2100280001F0BFFF0000002307E08C
:100DB000054A9A189200BFF35F8F0021116001333A
:100DC0001F2BF5D97047C04640000034054A107803
:100DD000431CDBB21370172B02D9130010221A70B8
:100DE0007047C04638020020074B9B6810308000D7
:100DF0001950BFF35F8FBFF35F8F044B0021196061
:100E000082F310887047C04600ED00E0240100D056
:100E100010B5091A081F0A4B9C466144094A9142C1
:100E200008D8C30706D440104005400D064B1843B0
:100E300080B210BD054B064AA321064801F0DAFE38
:100E4000FC070000FE0F000000E0FFFF684F0010ED
:100E5000D8510010984F001010B5091A04394C08E9
:100E6000090B08D14905490D064A11430180064B7B
:100E70002343438010BD054B054AAB21054801F0D3
:100E8000B9FEC04600F0FFFF00F8FFFFF44F00106E
:100E9000AC510010984F001001238340034A1068A2
:100EA0001840431E9841C0B27047C04600E100E0C0
:100EB000002904D0034B1860034B18607047034BA4
:100EC0001860FBE780E200E000E100E080E100E084
:100ED00010B5012383401800FFF7EAFF10BD0000A2
:100EE000024B9B6810308000C058704700ED00E056
:100EF00070B504000D00EFF3108672B60C4B1B6842
:100F0000002BFBD0BFF35F8F2000FFF7E9FF094BF9
:100F1000984201D0A84205D1320029002000FFF7F5
:100F200063FF70BD044B054A8621054801F062FE4F
:100F3000240100D0CD01001004500010F451001025
:100F4000984F0010F0B5CE46474680B583B00600F6
:100F50000D00EFF3108872B6564B1B68002BFBD0C8
:100F6000BFF35F8F544B9A6834001034A300D758F6
:100F7000524B9F4207D0AF4200D198E00197504BAF
:100F8000FB1A2F2B09D9424639003000FFF72CFFFE
:100F900003B0C0BCB946B046F0BD3000FFF77CFFDF
:100FA000814600213000FFF793FFBFF35F8FEFF31F
:100FB0000581002901D08C4211D10123019C9C4361
:100FC0000022A368AB4212D00622A256002A0DDBF3
:100FD00053009B189B002200394CE418F1E736219E
:100FE000384B394AFF31394801F004FE2200AB4248
:100FF00056D106256557002D38DB6B005B199A002A
:101000002F4B9B189A68A260DA79E27106229A56F1
:10101000A2719B795BB2002B0FDA2D48A0806B0088
:101020005B199B00264AD3182A4A117899711570CA
:1010300049463000FFF74CFFA5E7201D6B005B1908
:101040009B001F4A9B181A1D9B88D90A1C2907D18F
:101050005B055B15023359005118FFF7D9FEDDE738
:101060001D4B1E4AB121194801F0C4FD002912D1BF
:10107000002A0ED0FF239371194B9380154A1378E1
:10108000A371184B0E49641A644163431B0D13701E
:10109000CEE70A4FF2E7201D1349FFF7DDFEC7E751
:1010A0006A21124B084AFF31084801F0A3FD034FA3
:1010B00069E7C046240100D000ED00E0CD0100103A
:1010C0003C02002018510010C4510010984F00102D
:1010D00001BD00004107002000510010E451001044
:1010E00001BDFFFFAAAA0000760200204C510010AB
:1010F00070B5012101432E4BCB1A2F2B28D8EFF3CB
:101100000583002B2BD0EFF3108C72B6294A12689E
:10111000002AFBD0BFF35F8F274A0400244D641BD5
:1011200064416243120D54B2244A92689B00D25823
:101130008A421BD00022032A32D853009B189B00FE
:101140001B49CB189B795BB2A3421FD00132F2E757
:10115000C7211B4B1B4A49001B4801F04BFD922144
:101160001A4B184AFF31184801F044FD134A92689F
:101170001749D150174B1A7882711C70BFF35F8FDB
:101180000C4B00221A608CF3108870BD0D005300C8
:10119000991889006918FF268E710F4A8A80E9E73D
:1011A000D1210E4B074A4900074801F023FDC046F4
:1011B0003C020020240100D0AAAA000000ED00E0BB
:1011C0005451001090510010984F00107C510010A5
:1011D000CD0100104107002001BDFFFF8851001024
:1011E0000022044B02E0044902C30132072AFAD963
:1011F0007047C04600E400E080808080024B9C463F
:1012000061448900016070474000003410B504005B
:10121000FFF7DCFD01002000FFF7F0FFFF23237143
:10122000BFF35F8F10BD10B50400FFF7CFFD0100C5
:101230002000FFF7E3FFFF23237100236371BFF357
:101240005F8F10BD10B50C00CB68834207D108003A
:101250000B699847002809D02068616810BD5221A9
:10126000054B064AFF31064801F0C4FC0023E36049
:1012700000200021F2E7C0465C530010F855001032
:101280007053001070B505000C00080000F04AFF14
:101290000949200000F08AFEFFF798FD074B9C46A5
:1012A0006044800068602C75D0231B061B786B752A
:1012B000A400034BE55070BDC91500104000003478
:1012C000040500200A4B1A68EFF3108172B6136808
:1012D000002BFCD0BFF35F8F054B1B68BFF35F8F04
:1012E00000221A6081F3108840BF0020002170475F
:1012F0001807002010B5002922D003681B7B9942F3
:101300001ED8174B9C466144090183689C46614482
:101310000C684968002A19D003681B7B9A4215D8CB
:1013200083680F488446624412019A181068536813
:10133000020001208B4201D80ED00020C0B210BDA7
:10134000084B094A3C21094801F054FC054B064A68
:101350003C21064801F04EFCA242EFD8EDE7C04622
:10136000FFFFFF0FC45300106056001070530010B1
:1013700010B500291ED0037B99421BD84B005B1887
:10138000033B0468A4466344002919D0002A1DD0F9
:10139000914221D0002A25D0047BA24222D80468A1
:1013A00050008018033820188170197800291FD147
:1013B0001A7010BD104B114A6821114801F01AFC37
:1013C000104B114A6F310E4801F014FC0F4B0E4ABE
:1013D00070210B4801F00EFC0D4B0B4A712108489F
:1013E00001F008FC044B054A6821054801F002FCA5
:1013F00041701A70DDE7C046E8530010CC5600106B
:10140000045400106C540010A856001078540010BA
:101410008454001070B506000D001400002914D08B
:10142000002A14D0806873689847002806D02200EC
:1014300029003000FFF79CFF280007E02A00210068
:101440003000FFF795FF200000E0100070BD08009D
:10145000FCE70000F0B583B00500009201930AABF1
:101460001C780BAB1F78002C26D003685A7B944263
:1014700007D10123002B19D1002C3BD1200003B050
:10148000F0BD002C0CD01A7B944209D81A68630076
:101490001B19033BD3189B78002BEBD00123E9E702
:1014A0003E4B3F4A68213F4801F0A4FB3E4B3F4A78
:1014B00067213F4801F09EFB03689C7B002CDBD03A
:1014C00012D01A7B94420FD862001219033A19689D
:1014D0008C46624451789973002900D1D973002356
:1014E000937053701370C7E72C4B2D4A68212D4819
:1014F00001F080FB002C3AD02B681B7B9C4236D835
:101500002C4BE3181B01AA6894466344009A1A60A6
:10151000019A5A60089A9A60099ADA602E68002C3B
:101520002BD030D0337B9C422DD863001B19033B5A
:1015300032689446634400229A705A701A70717B24
:1015400022003000FFF766FF7073844200D095E7F9
:10155000287D009A019B00F071FD061E01D0002F2E
:1015600017D00C9B002B00D188E71E7086E7124B2A
:10157000124A3C210E4801F03DFB114B114AA521B6
:10158000084801F037FB054B054A6821054801F082
:1015900031FB2868210000F0BBFFE2E7E8530010B0
:1015A000CC560010045400109C540010D856001063
:1015B00070530010FFFFFF0FC4530010605600105F
:1015C0006C530010BC560010F0B5DE4657464E4630
:1015D0004546E0B58BB00990002308938200B54BD7
:1015E000D658370052E0B44BB44A3F21B44801F01A
:1015F00001FBB44BB44A3C21B44801F0FBFA00298A
:1016000001D1002869D10021404600F077FFA042B7
:1016100019D12A686B6806920793AB689846EB6805
:101620009A464346002B14D0002C18D03B681B7BF5
:101630009C4214D8631EFA68D35C08931B021843BB
:101640003861002015E0A24BA24A8E219F4801F08C
:10165000D1FAA14B9F4A92219C4801F0CBFA994BB9
:101660009E4A4121994801F0C5FA00239A469846BE
:1016700000207B68BFF35F8F00221A6086F310881A
:101680004346002B32D1002800D10CE100F04AFC87
:1016900002000B1EA7DB002000210690079178684E
:1016A000EFF3108672B601680029FCD0BFF35F8F9C
:1016B000396888464C7B002CD7D09AD0097B8C4265
:1016C00097D8874965182D01B9688C466544286804
:1016D0006968801A9941002991DD2A686B68099828
:1016E00000F0ACFC00239A469846C2E7089B1B0218
:1016F0002343994651461800C04705000E007A68FA
:10170000EFF3108B72B6136859424B41D9B2002BDC
:10171000F9D1BFF35F8F002E1EDB002E46DD3B6943
:10172000002B47D04B456DD100F0FCFB02000B1E97
:101730006EDB52197341002B70DB002B72DB002132
:101740000491013103910294514601914146009167
:101750003800FFF77FFE4CE03B69002BDDD04B45A6
:1017600014D1069A079B521BB341002B14DB002BAC
:1017700016DB00210491013103910294514601913D
:10178000414600913800FFF765FE32E0554B514A63
:10179000A1214E4801F02EFA01225242524BE6E7B7
:1017A000454B464A3F21464801F024FA002E01D11C
:1017B000002DB4D13B68002C50D05A7B944237D1D5
:1017C000012100294AD1DA7B002A4DD19A7B002AD7
:1017D00003D1DA7B002A5AD19C73DC73002C5CD0D5
:1017E0003B681B7B9C4258D8FA68013C135D01336F
:1017F000135500233B617A68BFF35F8F13608BF34F
:10180000108843E7374B334AA421304801F0F2F9FE
:10181000294B2A4A3F212A4801F0ECF90122524281
:10182000314B8AE7244B254A3F21254801F0E2F954
:10183000002C0DD01A7B94420AD862001219033A88
:101840001868844662449278002ABAD00121B8E729
:10185000264B274A6821274801F0CCF9264B274A16
:10186000F621244801F0C6F9002A0AD0197B8A42E1
:1018700007D851008A18033A19688C46624454709C
:10188000A4E71A4B1A4A68211A4801F0B3F91C4B15
:101890001A4AFB21174801F0ADF90A4B0F4A4121C2
:1018A0000A4801F0A7F90BB0F0BCBB46B246A94606
:1018B000A046F0BD04050020805200102C560010F8
:1018C0009C520010C453001060560010705300105A
:1018D000C454001044560010DC540010845600100C
:1018E000FFFFFF0FE8540010FFFFFF7FE8530010D9
:1018F000CC560010045400102455001098560010C7
:101900004855001010B50C4B5B68002B04D00A2121
:101910000A48FFF773FC10BD074C2300084A10214A
:10192000206800F0FBFC032000F0F0FA0321200007
:10193000FFF7A8FCEBE7C046840200201807002050
:10194000F512001010B5064B5B68002B01D004485F
:1019500010BD044B044A5E21044801F04BF9C04617
:10196000840200205C5500106C560010705300106B
:10197000F0B5DE4657464E464546E0B58BB080464C
:1019800016001F00149B9A46159B994616AB1B78B0
:101990009B461F2302AA9446634400221A702BE040
:1019A000002809D042461268127B904204D8421E99
:1019B0004146C9688A5C41E0404B414A4121414867
:1019C00001F018F907984CE0361BAF41002F07DBF8
:1019D000002F11DA3C4B3D4A3F213D4801F00AF906
:1019E000012676423B4FF3E7374B384A3F213848D0
:1019F00001F000F9002F4FDB43465A68EFF31084E3
:101A000072B6136859424B41D9B20791002BF8D1F5
:101A1000BFF35F8F1F3302AA9446634404930023ED
:101A2000039302934B4601935346009332003B00CD
:101A30004046FFF70FFD031EB2D102004146496840
:101A4000BFF35F8F00250D6084F31088002B29D031
:101A50001F2302A98C4663441B78002BB2D11202CB
:101A60001043002B20D05B46002B1DD04946D047A9
:101A700004000D0003000B431DD00029A4DB00F07F
:101A800051FA06000F1EAFDB36196F41002FB1DA95
:101A9000012676420F4FADE70B4B0C4A3F210C4815
:101AA00001F0A8F8012040420BB0F0BCBB46B246A2
:101AB000A946A046F0BD0798F6E7C046C4530010FB
:101AC0008456001070530010805200102C560010E5
:101AD0009C520010FFFFFF7FF8B50400002900D1E1
:101AE00062E04268EFF3108572B6136858424341D2
:101AF000D8B2002BF9D1BFF35F8FCBB22268567BEF
:101B0000B3421BD10120002848D0206988422BD045
:101B1000090AC9B2002B2ED02068007B83422AD844
:101B2000581EE668305C88422BD000206368BFF303
:101B30005F8F00221A6085F31088F8BD002B0DD04E
:101B4000167BB3420AD85E00F618033E1768BC46FF
:101B50006644B678002ED6D00120D4E7134B144A41
:101B60006821144801F046F82C21134B134AFF3129
:101B7000134801F03FF8134B134A4121104801F07C
:101B800039F81900100000F0C3FC0028CED19921CB
:101B90000E4B0A4A49000A4801F02CF823698B428F
:101BA000C4D100232361C1E70020C6E7E853001039
:101BB000CC5600100454001080550010145600102C
:101BC00070530010C453001084560010A455001028
:101BD000F0B585B00700100019000C9E13000B43F0
:101BE00001D101200021B7600A9B33613060716030
:101BF0000B9B7361CA1713005040040051400D0045
:101C0000A41A9D4100F08EF902000B1E12DB12197E
:101C10006B41002B14DB002B16DB01210291019696
:101C20000C4900913800FFF7A3FEF060C043C00FDD
:101C300005B0F0BD084B094A3F21094800F0DAFF22
:101C400001225242074BE6E7034B044A3F21044876
:101C500000F0D0FF45120010805200102C560010EA
:101C60009C520010FFFFFF7FF0B587B006000F0009
:101C7000EFF30583002B1FD106246442E517A41956
:101C80007D418D4202D803D1844201D90024002530
:101C9000002D14DB0494059500F044F902000B1E9E
:101CA00013DBA41A9D41002D17DC14D0300039003D
:101CB00000F044F907B0F0BD234801F035F8234B9C
:101CC000234A3F21234800F095FF204B204A3F2123
:101CD000204800F08FFF002CE8D0FFF733FE0023F0
:101CE000029301931C4B0093049A059BFFF740FE5F
:101CF000002818DADAE7002300E00023002BD5D112
:101D0000164B1A68EFF3108172B61368002BFCD0E3
:101D1000BFF35F8F114B1B68BFF35F8F00221A6008
:101D200081F3108820BF0499059A0D4B5B6A9A4293
:101D3000E3D80B48806A884203D29A42DBD0012361
:101D4000DCE70123DAE7C046A855001080520010F6
:101D50002C5600109C520010C512001018070020CD
:101D60000040054070B504000D0000F0DBF80200F3
:101D70000B1E0ADB200029008018594100290ADBCC
:101D800000290CDBFFF770FF70BD084B084A3F21AC
:101D9000084800F02FFF012040420749F0E7034BBD
:101DA000034A3F21034800F025FFC046805200103F
:101DB0002C5600109C520010FFFFFF7F10B5FA2236
:101DC00092000023002102F071FCFFF7CBFF10BD51
:101DD00070B584B005000C00EFF30583002B1ED115
:101DE000FFF7B0FD002302930193224B00932A00DA
:101DF0002300FFF7BDFD061E23DD20BFFFF7A2FD78
:101E00003100FFF769FE1C4B5B6A9C422DD81A4AD1
:101E1000926AAA422CD29C4225D0012026E0164B81
:101E20005B6A994209D8144A926A824207D299425F
:101E300001D001201AE0002018E0002016E0012067
:101E400014E00D4B5B6A9C4209D80B4A926AAA4285
:101E500007D29C4201D0012008E0002006E00020CB
:101E600004E0012002E0002000E0002004B070BD8A
:101E70000120FBE7C51200100040054070B5EFF3EC
:101E800005801038EFF3108C72B61A4B1B68002BCC
:101E9000FBD0BFF35F8F01221300834016494B63D1
:101EA00016490B60164909780C00C440224214D030
:101EB000114A546A8200134D5259944206D382004B
:101EC000114C125999430E4B197007E00A4A031D31
:101ED0009B0099589950002200E00022BFF35F8FC9
:101EE000044B002119608CF31088002A00D0904721
:101EF00070BDC046280100D0004005403C70054040
:101F000042070020280700206404002010B50100CB
:101F1000024A0348FEF730FF10BDC046F0560010DD
:101F200040070020044B5B6A034A906A1900536A19
:101F30009942F9D17047C04600400540084B5B6AA2
:101F400001E0074B5B6A8B42FBD301E0044B5B6A09
:101F50008B4203D1024B9B6A8342F7D37047C04642
:101F60000040054070B504000D00FFF7DBFF0200E4
:101F70000B0020002900801859418B4202D804D15F
:101F8000824202D901204042C117002902DBFFF73B
:101F9000D5FF70BD024B034A3F21034800F02AFEE3
:101FA00080520010B45700109C52001070B504000D
:101FB0000D00EFF3108672B61B4B1B68002BFBD095
:101FC000BFF35F8F002D1CD02000FEF789FF174B59
:101FD00083420BD019002000FEF78AFF0121200068
:101FE000FEF776FF0123A340114A1360A400114BB2
:101FF000E550BFF35F8F0C4B00221A6086F3108808
:1020000070BDA2000B4B0021D1500122A2400A4911
:102010000B7893430B7005492000FEF793FF0021D6
:102020002000FEF755FFE4E7280100D07D1E0010D8
:10203000386005406404002042070020F0B5DE4609
:1020400000B584B00400150001921E000293FFF752
:1020500069FF03958E4202D84ED185424CD9EFF3E9
:10206000108B72B6274B1B68002BFBD0BFF35F8F22
:10207000254A17780125A540EBB23B431370234B4B
:102080005D63221D92000199D150A200204902985F
:1020900050501B6A2B4212D11C4B1B6C2B4208D098
:1020A0000020BFF35F8F174B00221A608BF310885C
:1020B00023E0184B184AC521184800F09BFDFFF794
:1020C00031FF8E4214D802D1039B834210D80E4BAD
:1020D0001B78BB420ED00D4B1D625D631F20044078
:1020E0000123A3400E4A1360074B1F701E38D8E728
:1020F0000020D6E70120D4E7012004B080BCBB4615
:10210000F0BDC046280100D0420700200040054035
:102110002807002014570010985700103857001057
:1021200080E200E0EFF3108C72B60B4B1B68002BC3
:10213000FBD0BFF35F8F01238340084A1362084935
:102140000A789A430A70BFF35F8F034B00221A602C
:102150008CF310887047C046280100D0004005402D
:1021600042070020F0B5CE46474680B587B0894685
:102170000423D3560325555702241457013C052642
:1021800096570627D757072151568C460021525E95
:102190009B000A495B580592624604920397029697
:1021A000A200074C125901920095064A494601F0D7
:1021B00067FE07B0C0BCB946B046F0BD98580010E5
:1021C000B4580010CC57001010B500291ED0037B66
:1021D00099421BD84B005B18033B0468A446634438
:1021E000002919D0002A1DD0914221D0002A25D0E3
:1021F000047BA24222D804685000801803382018BB
:102200008170197800291FD11A7010BD104B114A26
:102210006821114800F0EEFC104B114A6F310E4856
:1022200000F0E8FC0F4B0E4A70210B4800F0E2FC76
:102230000D4B0B4A7121084800F0DCFC044B054AA9
:102240006821054800F0D6FC41701A70DDE7C046F1
:10225000E8530010EC590010045400106C540010A6
:10226000D8590010785400108454001070B506003E
:102270000D001400002914D0002A14D0806873685F
:102280009847002806D0220029003000FFF79CFF65
:10229000280007E02A0021003000FFF795FF20000A
:1022A00000E0100070BD0800FCE7000010B500233E
:1022B000437301338373037BC3730123027B9A420D
:1022C00014D9002B0CD0027B934209D85A00D218A3
:1022D000033A01688C4662440133DBB25370EDE788
:1022E0000B4B0C4A68210C4800F084FC002A09D0F2
:1022F000924207D8016853009A18033A8A180023BB
:10230000537010BD024B034A6821034800F072FC71
:10231000E8530010EC5900100454001010B501737C
:1023200042608360FFF7C2FF10BD000070B504007B
:10233000081E00D170BD002934D0237B994231D8CA
:102340004B005B18033B2268944663445A78002A8A
:10235000F0D02DD0237B9A422AD853009B18033B00
:1023600021688C4663445D7800215970002825D08F
:10237000237B984222D843001B18033B21688C46DC
:1023800063440021597001002000FFF76FFF060031
:1023900029002000FFF7CAFF020031002000FFF7EC
:1023A00065FFC7E7084B094A6821094800F022FC8D
:1023B000054B064A6821064800F01CFC024B034A04
:1023C0006821034800F016FCE8530010EC59001097
:1023D0000454001070B505000C00160000292FD021
:1023E00034D0037B994231D84B005B18033B026821
:1023F000944663445A78002A2ED19A78002A31D123
:102400001978FFF793FF0300002E0AD0EA7B002A19
:102410002ED1AA7B002A03D1EA7B002A3BD1AC73E0
:10242000EC73002B3DD1002C4FD02B7B9C424CD821
:102430002B6861000C19033C1C190023637070BDEC
:10244000254B264A3821264800F0D4FB254B264A46
:102450006821264800F0CEFB254B204A3A2120482F
:1024600000F0C8FB234B1D4A3B211D4800F0C2FB76
:10247000002A0AD0297B8A4207D851008A18033AD9
:1024800029688C4662445470C3E7164B164A68218B
:10249000164800F0AFFB184B104A4221104800F0DC
:1024A000A9FB002B0BD02A7B934208D843001B18B2
:1024B000033B2A689446634400229A70B3E7094BB1
:1024C000094A6821094800F095FB064B064A682135
:1024D000064800F08FFBC046E4580010C4590010B5
:1024E000EC580010E8530010EC5900100454001090
:1024F00040590010685900104855001070B504008C
:102500000A00457B2900FFF765FF6073280070BD56
:1025100070B50400002967D0437B8B420ED00029A0
:1025200011D0037B99420ED84B005B18033B026825
:10253000D0188378002B0CD1002056E00121FFF742
:10254000DDFF012051E0294B294A6821294800F08C
:1025500051FB002B20D0227B93421DD85A00D31868
:10256000033B2268D2182568EB5C8B421AD0002B03
:102570001BD0227B934218D85A00D318033B226801
:10258000D21853788B4216D0002BF0D11A4B1B4A2D
:102590006B211B4800F02EFB144B154A682115488F
:1025A00000F028FB4378137007E0104B104A6821B5
:1025B000104800F01FFB4378537000238370437072
:1025C00001222000FFF706FF0200617B814205D057
:1025D0002000FFF74BFE6073012006E0094B074A1D
:1025E0007121074800F006FB002070BDE853001081
:1025F000EC5900100454001088510010AC59001020
:10260000EC5800108C59001070B5046BE30701D42E
:10261000200070BD02003032C0239B0113430A4AE0
:102620001A60456A826AAD01AD18AD02062000F05D
:10263000BDF9064901F0A4FC0100280001F0A0FC4E
:102640000021FFF78FFCE3E7010300004E0E0000BE
:1026500070B504000E001500FFF7D6FF22002C32E3
:10266000E16A4E40354080235B0113431D602063C7
:1026700070BD000070B505000C00062000F096F952
:10268000C000210001F07CFCC60908D00E4B9E4220
:1026900016D87F23184001303400460800E001249A
:1026A0006C62AE62002200212800FFF7D1FF0620F5
:1026B00000F07CF98000A101891901F061FC70BD76
:1026C0000026024CECE7C046FEFF0000FFFF0000C2
:1026D00010B505394901013AD2001143002B09D048
:1026E00002220A43012B07D0002111436E22FFF77B
:1026F000AFFF10BD0022F4E70421F6E7002909D05E
:102700000A22064B9C466044434258414000044B19
:10271000C252704780225200F3E7C0460080FCBFDF
:102720003807002070B505000C00062000F03EF9C7
:10273000061E27D0164B9D4226D08022D203154B71
:102740001A60154B1A60154B9B6811009943FAD11A
:1027500000212800FFF7D2FF21002800FFF78AFFA1
:1027600006000023012208212800FFF7B1FF2A00FC
:102770002C3280239B01134310221A60084B2B63D9
:102780000323AB64300070BD80221204D7E7C0463B
:102790000080034000E0004000F0004000C0004026
:1027A00001030000F8B5DE4657464E464546E0B503
:1027B00005000F0092460A9A934250D31A0E914692
:1027C0001E020A9A00233000494601F017FC804699
:1027D0006C006419A400304B9C46644463688342D7
:1027E00000D260602B1FDBB29B46012B3DD9C0237A
:1027F0009B012343802212011A60AB00274A99589B
:10280000002907D0506901F0BBFB431C5800C018D9
:102810000338FDD253465A0123685A40E0231A4038
:1028200080235B0123431A605A46012A28D980235A
:102830009B012343802212011A6043466360424693
:1028400000233000494601F0D9FBAD00134B58512D
:102850000120F0BCBB46B246A946A046F8BD104BCD
:10286000104A3321104800F0C5F9012FBFD1C02311
:102870009B01234303221A60A368DB07FCD5C9E749
:102880002168794003220A401A60A2680123BB40F4
:102890001342FAD0CBE7C046008000407C04002001
:1028A000F85900106C5A00100C5A001030B583B063
:1028B0000C2000F011F9FEF73FFA00280DD000239C
:1028C00004E099002D4A2E4888500133092BF8D98D
:1028D0002A4B2C4A5A6203B030BD2B4B00229A6718
:1028E00000F05CF9294B01221A60274B5B6C012B2D
:1028F000FBD1274B03221A60234B9B6B012BFBD18F
:10290000013300930433234A0121234800F054F893
:1029100005230093214A0121214800F04DF8214B65
:102920000093002202210420FFF73CFF1E4D00957A
:102930002B00002201210520FFF734FF104C0094EA
:102940002300002200210720FFF72CFF0094230022
:10295000002200210820FFF725FF0A4B00932300E7
:10296000002200210920FFF71DFF00952B00002207
:1029700000210620FFF716FFADE7C0467C040020CB
:10298000006CDC021BB70000008000403CB000403F
:1029900030B00040002F685900800240008C86470C
:1029A00000C00240001BB700405973078000014B74
:1029B000C05870477C040020F0B5C64600B504003E
:1029C0000E0017001D00374801F0DAFA8046364B3A
:1029D000FA18364B9A4239D80100380001F0D0FA83
:1029E0000200103A98235B009A4235D86B1E062BE2
:1029F00038D8069B013B062B34D83F09474537D3CF
:102A00002D04069B1A0315432368002B36DB284B45
:102A10009C4244D080225201264B1A60264B1A60F9
:102A2000264B9B6811009943FAD12660A060231DB4
:102A3000C02292011A43212313602368002BFCDA81
:102A4000E5600823136080BCB846F0BD1C4B1D4AEE
:102A500011211D4800F0CEF81C4B1A4A19211A48C2
:102A600000F0C8F81A4B174A1C21174800F0C2F8AA
:102A7000184B144A2321144800F0BCF822683F2365
:102A80001340B342C3D1A3681B051B0D8342BED1C3
:102A9000E368EE22D2021340AB42B8D1D3E78022E2
:102AA0009201B9E7001BB70080E84BD380F8A93248
:102AB00000C0024000E0004000F0004000C00040C4
:102AC0007C5A0010BC5B0010DC5A0010385B001010
:102AD000545B0010A05B001080239B000343014A5D
:102AE000D362704700800540024B1A68024B5A605F
:102AF0007047C046EC0400200080054010B502007D
:102B0000164B8020C0051860154B16481860002928
:102B10000AD0154BE021C9041960002A09D1124BD3
:102B2000802212061A6010BD0C4BE021C904196006
:102B3000F3E753019B1A9800801800010B4B1860B3
:102B400080235B04984202D3084B094A1A60FFF7BE
:102B5000CBFF054B8022D2051A60E4E700B00540A8
:102B600008200140FCFF010000A00540EC0400200B
:102B7000FFFFFF0010B5034B034ADA61FFF7BEFF0A
:102B800010BDC046008005402131B76A024B9868ED
:102B9000431E9841C0B2704700800540064BAA22F0
:102BA00012011A602F22DA60044B054A1A60024BA8
:102BB0005B68002BFBDA7047004002400060024077
:102BC00000B0FA00014B9866D96607E0000000D01B
:102BD000014B1866596601E0000000D0FFE7FFE7EF
:102BE000FFE7596F186F704700BEFDE710B5FFF79C
:102BF000FBFF000010B582B00C001900002A0CD0B9
:102C0000084B002A0BD001920093230002000648D3
:102C100001F010FF0120FFF7E7FF044BF1E7034A43
:102C2000F1E7C046C85B0010D85B0010D45B001011
:102C300070B52B4B2B4A1A602B4B2C4A1A602C4B2D
:102C40009A682A4B9343FAD12A4C01E008CC984762
:102C5000294B9C42FAD3FFF729FE234B274A1A60DF
:102C6000234B9B68DB43DB01FAD1254B40229A675B
:102C70005A671A67DA66234C09E0234B234A8721F7
:102C80002348FFF7B7FF2000FEF7C0FA0834214BB6
:102C90009C4209D22368002BF5D0012BEDD12000F6
:102CA000FEF7C1FA0834F2E71B4CA1681B4DC022A5
:102CB000280001F067FDA560EFF30583002B00D02D
:102CC00000BEFEF773F8FEF78BFAFEF71BFE144CFE
:102CD00001E008CC9847134B9C42FAD370BDC04624
:102CE00000E00040BFCDFBFE00F00040FE7F3C0056
:102CF00000C00040F002002000030020FFFFFF01A1
:102D000000F00140E8020020085C00109C5C00100C
:102D1000285C0010F002002000ED00E00000002020
:102D200000030020040300200FB400B583B008485E
:102D300001F050FE049B002B07D005A9019118005B
:102D400001F058FE034801F045FE0120FFF74CFF5B
:102D5000885C0010985C00109A4200D2885470473A
:102D6000704710B5002802D00B684968984710BD1D
:102D70000100002007E083001B185B00501C086066
:102D80001078C01830380A681378303BDBB2092B52
:102D9000F1D97047F0B5DE4657464E464546E0B598
:102DA00083B093461F000C9B9A460D9C0E9B994640
:102DB0000F9B9B0703D0B8460F00060022E001924C
:102DC000A34688464E46B9460700B44207D2551C72
:102DD0004B4641462020B84701342A00F5E73D0024
:102DE0004F465C46019B9B46B1464646B846370077
:102DF0002E0007E0013C551C5346185D4346390040
:102E0000B0472A00002CF5D135003E0047460F9B05
:102E10009B0707D4100003B0F0BCBB46B246A946DE
:102E2000A046F0BDB0464E46B9462F005D46531B46
:102E3000B342EFD2541C4B4641462020B8472200F3
:102E4000F5E7F0B5CE46474680B585B0944698463E
:102E50000C9D0D9C0EAB1B789946109A119B129EEF
:102E6000B7071CD4002B0CD0F7070AD54F46002F0C
:102E700002D10C37374204D0013B02E030272F55F6
:102E80000134944201D21F2CF8D9F70707D59C4290
:102E900005D21F2C03D830272F550134F5E7F7064C
:102EA00015D5770505D4002C03D0944224D09C423C
:102EB00022D00F9A102A2BD00F9A102A30D00F9AB6
:102EC000022A35D01F2C02D830222A5501341F2C5B
:102ED00005D84A46002A31D02D222A5501340396BE
:102EE00002930194009543466246FFF753FF05B0F5
:102EF000C0BCB946B046F0BD621E012C06D00F9F83
:102F0000102F01D01400D4E7023CD2E71400D0E720
:102F1000B206D1D41F2CCFD878222A550134D1E75C
:102F2000B206CCD51F2CCAD858222A550134C9E77D
:102F30001F2CC7D860322A550134C3E7720703D566
:102F40002B222A550134CAE73207C8D520222A5538
:102F50000134C4E7F0B5DE4657464E464546E0B577
:102F600093B081468A46089209931CAB10CB1B781C
:102F70009B461E9D219B9846002C03D11023424660
:102F80009A4390468023DB0046461E4042461A4242
:102F900012D0002C22D000260EE03033D9B2771C9C
:102FA0000AAB99552900200000F0EAFFAC4216D385
:102FB0001F2F14D83E0004002900200000F0E0FF7D
:102FC000CBB2092BE9D94246920605D54121C91851
:102FD000C9B20A39C9B2E2E76121F8E727004346DE
:102FE0000693209B05931F9B049303955B460293D6
:102FF00001970AAB0093099B089A51464846FFF790
:1030000020FF13B0F0BCBB46B246A946A046F0BDB7
:10301000F0B5DE4657464E464546E0B595B00890B9
:1030200009910A920B931E9E1F9C20AB1B789B4616
:10303000229B9946239D269B9A463300234303D126
:10304000103352469A4392468023DB0057461F4076
:1030500052461A4219D0330023432DD0002714E0E2
:103060003033DAB27B1C98460CABDA554A462B005B
:103070003000210000F0C2FFA5421FD819D04346FE
:103080001F2B1BD8474606000C004A462B00300079
:10309000210000F0B3FFD3B2092BE1D952469206CA
:1030A00005D54122D218D2B20A3AD2B2DAE7612269
:1030B000F8E7B145E3D901E000239846534606936B
:1030C000259B0593249B04934B4603935B460293F5
:1030D000434601930CAB00930B9B0A9A09990898FD
:1030E000FFF7AFFE15B0F0BCBB46B246A946A046FE
:1030F000F0BD0000F0B5DE4657464E464546E0B509
:1031000091B083468A460C9298461A9C08941B9D5F
:10311000099522002B002000290001F0EAF900287F
:1031200000D0E5E001225242D74B2000290001F0F7
:10313000DBF9002800D0DBE001225242D34B200013
:10314000290001F0BBF9002800D0D1E000220023C3
:10315000089E3000099D290001F0B0F9002800D038
:10316000DDE008980999069007918023DB001E9AFC
:103170001A400D921E9A1A4201D106231C930698FA
:10318000079904000D000A000600024300D1D1E0B7
:10319000080D4005400DBE4CA44660440A03120BC6
:1031A000BC4B13431F0001F0B7F9BB4ABB4B01F006
:1031B00046F9BB4ABB4B01F023F904000D00002285
:1031C000B94B3000390001F016F9B84AB84B01F09C
:1031D00036F902000B002000290001F011F901F07E
:1031E000B3F9814601F098F904000D00B14AB24BE1
:1031F00001F025F90022B14B01F002F901F0A4F928
:103200000600AF4AAF4B2000290001F018F9040076
:103210000D00300001F080F9AB4AAC4B01F00FF922
:1032200002000B002000290001F0E5F804000D0069
:1032300002000B0001F003F90A900B91A44BF31864
:1032400000261F0522002B002000290001F0D8F8DD
:103250000E900F9122002B0000208021C90501F063
:10326000CAF804000D0000229A4B0A980B9901F04D
:10327000CCF80022984B01F0C3F802000B000A982A
:103280000B9901F0C2F80022944B01F0B9F802004A
:103290000B000A980B9901F0B8F802000B0020000F
:1032A000290001F0ADF802000B000E980F9901F013
:1032B000ACF80022774B01F0A3F832003B0001F09C
:1032C000BEF806000F0004000D00069A079B01F0EF
:1032D0000BF9002830D001235B429C46E1440022D8
:1032E0007D4B3000390001F090F804000D0023E020
:1032F0001E9B04931D9B03931C9B0293089A099B9E
:103300000092019343460C9A5146584600F0FCF84F
:1033100011B0F0BCBB46B246A946A046F0BD0023A2
:10332000002406930794069680231B069C4665445A
:1033300007951AE7002399464B466333C62B1ED8E0
:1033400004261E9B1B0526D52B0023430FD0644A61
:10335000644B0698079901F0BFF8002879D0002245
:10336000614B0698079901F0A9F8002871D01C9BC1
:103370004B4506DD4A46981A431E1C9303E005267A
:10338000DFE700231C938023DB001E9A1A431E9262
:103390000026002399461D9B9E4264D29F1B022358
:1033A0001E9A1A400A921E9A134202D0002E00D092
:1033B00000274B46002B07D022002B0006980799C8
:1033C00001F023F80690079100220023089809993C
:1033D00001F074F8002848D1444B1E9A134004931E
:1033E00003971C9B0293069B079C00930194434602
:1033F0000C9A5146584600F087F8002E00D187E716
:103400001E9B9B063DD54525441C43460200514664
:103410002800D8474B46DA179B18534005220592DF
:10342000013E0496002203920A3202924A46D00FCD
:10343000019000934346220051465846FFF78AFD0B
:103440000A9B002B00D163E702005F460C9E1D9D86
:1034500054E01C9B002B9ED00D9B002B9BD01C9BF3
:10346000013B1C9397E7002799E7069C079D2200E4
:10347000290080200006844661440B0006920793D1
:10348000AAE76525C0E7C046FFFFEF7FFFFFEFFF1C
:1034900001FCFFFF0000F03FFB799F501344D33F36
:1034A000B3C8608B288AC63F0000F83F61436F6352
:1034B000A787D23F71A379094F930A400000E03FEC
:1034C0001655B5BBB16B0240EF39FAFE422EE63F0E
:1034D000FF03000000002C400000244000001840C2
:1034E0002D431CEBE2361A3F80842E41FFF7FFFF8D
:1034F000541C434651462020B8472200931BAB4240
:10350000F6D3100004E7C046F0B5DE4657464E46F7
:103510004546E0B595B00690079193469946209FA1
:103520001E9A1F9B1000190000F0E3FF002831D104
:1035300001225242BF4B1E981F9900F0BFFF002886
:1035400037D101225242BC4B1E981F9900F0CCFF8C
:1035500000283DD10022B94B1E981F9900F0C4FFEE
:10356000002850D10022B64B1E981F9900F0A6FFEC
:10357000002848D1002200231E981F9900F09EFFCA
:10358000002850D100239846229B5B0500D4B6E06A
:10359000002458E0229B0393219B02930323019371
:1035A000A84B00934B465A4607990698FFF7F2FB43
:1035B0000EE1229B0393219B029304230193A24BD0
:1035C00000934B465A4607990698FFF7E3FBFFE046
:1035D0000423229A1A4022990B4210D09B4B002AB6
:1035E0000FD0042222990391219902910192009314
:1035F0004B465A4607990698FFF7CCFBE8E0944BF8
:10360000EDE70322EEE7229B0493219B03930297AD
:103610001E9B1F9C009301944B465A46079906989F
:10362000FFF768FDD4E01E9A1F9B0020002100F0E8
:10363000E2FE1E901F9101239846A5E70CAB3022B5
:103640001A55013F01341F2C01D8092FF6D81E98B6
:103650001F9900F079FF050000F05EFF02000B00EB
:103660001E981F9900F0C7FEFA007A4B9B181A6843
:103670005B680A920B9300F0E2FE0890099100F05B
:1036800087FF060000F044FF02000B00089809992C
:1036900000F0B1FE0890099100226F4B00F024FF6A
:1036A00000282ED00136300000F032FF02000B005F
:1036B0000A980B9900F008FF002801D00135002678
:1036C000002F2CD1280000F027FF02000B001E98CD
:1036D0001F9900F090FE06000F0000225E4B00F0E4
:1036E000EDFE002846D100225B4B3000390000F08F
:1036F000FBFE00283ED1EB073CD501353AE006271A
:1037000046E70022544B0898099900F0D7FE00289C
:10371000D6D1002E01D0F307D2D50136D0E7AA4684
:103720001F2C11D8013F0A21300000F029FC651C34
:1037300030310CAB19550A21300000F021FC092E64
:103740000ED906002C00EBE755461F2C0CD87B1E2B
:10375000002F09D00CAA302111551F000134F4E7C5
:103760002B0055461C00F0E71F2C03D80CAB2E2273
:103770001A5501341F2C10D80A21280000F0D8FB5C
:10378000661C30310CAB19550A21280000F0D0FB23
:10379000051E01D03400EDE734000323229A1340C4
:1037A000012B1CD01F2C06D84346002B32D00CAB6B
:1037B0002D221A550134229B0393219B02930194DD
:1037C0000CAB00934B465A4607990698FFF7E2FA6E
:1037D00015B0F0BCBB46B246A946A046F0BD219B41
:1037E000002B13D04346002B02D10C3313420FD0D1
:1037F000219B013B2193190003E00CAB30221A55A9
:1038000001348C42CED21F2CF7D9CBE72199F8E7AF
:103810002199F6E7229B5B0704D50CAB2B221A55A6
:103820000134C8E7229B1B07C5D50CAB20221A55D3
:103830000134C0E7FFFFEFFFFFFFEF7F65CDCD4114
:1038400065CDCDC1B85C0010BC5C0010B05C001050
:10385000AC5C0010A85E00100000E03FF0B5DE4652
:1038600057464E464546E0B593B082468B46904655
:103870001193002900D1EBE200275546119B1878DF
:10388000002800D1E7E2252809D07C1C43463A00F5
:103890005946A847119B013311932700EEE70133E6
:1038A00011930024119A11780B00203BD8B21028F4
:1038B00003D88300D048C3589F460B00303BDBB28F
:1038C000092B2CD92A292FD000230A93119B1A786F
:1038D0002E2A39D000239A46119A1378683BD9B220
:1038E000122976D88B00C549CB589F4601231C432B
:1038F00001321192D6E702231C4301321192D1E723
:1039000004231C4301321192CCE708231C430132EB
:103910001192C7E710231C4301321192C2E711A88C
:10392000FFF726FA0A90D1E71C9B1A1D1C92186813
:10393000002804DB0A90119B01331193C6E7022390
:103940001C4343420A93F6E78022D20014435A1CD8
:1039500011925A781300303BDBB2092B04D92A2A82
:1039600007D000239A46B7E711A8FFF701FA82466D
:10397000B2E71C9B1A1D1C921868002804DB8246C3
:10398000119B01331193A7E70020F8E780235B0028
:103990002343511C119152786C2A01D01C0018E06D
:1039A000C0239B001C430131119112E0802323436B
:1039B000511C11915278682A01D01C0009E0C023E3
:1039C0001C430131119104E080235B001C43013250
:1039D0001192119B18780300253BDAB2532A00D9C3
:1039E0002CE29300864AD3589F4680239B001C43B9
:1039F00001321192EDE780235B001C4301321192EA
:103A0000E7E7782809D0582838D06F2838D06228BE
:103A100038D010239C430A2600E01026582833D0C3
:103A2000692803D0642801D00C229443630501D592
:103A30000122944369282AD0642828D0A30500D500
:103A40009FE0E30500D5B8E0630600D4CAE01C9A05
:103A5000111D1C911168FF220A4005940A9B0493D2
:103A600053460393029600230193009243463A0083
:103A700059462800FFF76EFA070027E01026CDE729
:103A80000826CBE70226C9E720221443C8E7A3058E
:103A900020D4E30550D4630666D51C9A111D1C91F1
:103AA0001168FF220A40D317D118594005940A9B88
:103AB0000493534603930296D20F0192009143461A
:103AC0003A0059462800FFF745FA0700119B0133D9
:103AD0001193D3E61C9BDA1D07218A43110008319C
:103AE0001C91116853689C46DB170C930D930C9A3C
:103AF0000D9B100048400E90624653400F930E9865
:103B00000F990C9A0D9B801A99410E900F91089471
:103B10000A9B079353460693049600230593634636
:103B2000DA0F02920090019143463A00594628006C
:103B3000FFF76EFA0700C9E71C9A111D1C91126865
:103B4000D317D118594005940A9B04935346039305
:103B50000296D20F0192009143463A00594628003E
:103B6000FFF7F8F90700B1E7230605D51C9A111DE8
:103B70001C910023D25E96E71C9A111D1C911268BD
:103B800091E71C9BDA1D07218A43110008311C9123
:103B900008940A9B079353460693049600230593C3
:103BA0000293136854680093019443463A005946BF
:103BB0002800FFF72DFA070088E71C9A111D1C91B9
:103BC00005940A9B049353460393029600230193A2
:103BD0001368009343463A0059462800FFF7BAF9A4
:103BE000070073E723060DD51C9A111D1C9112685E
:103BF0001204120C31E7C046C45C0010085D0010CE
:103C0000545D00101C9A111D1C91126825E746286E
:103C10001AD01C9B0733072293431A0008321C92C8
:103C200004940A9A0392524602925C681B680093BD
:103C3000019443463A0059462800FFF765FC070007
:103C4000119B0133119319E620231C43E1E76728F8
:103C500001D0472802D180231B011C43452801D0F5
:103C6000472801D120231C431C9B07330722934381
:103C70001A0008321C9204940A9A03925246029245
:103C80005C681B680093019443463A00594628003B
:103C9000FFF730FA0700119B01331193EEE5022381
:103CA0001A002240924623421FD001241C9B1A1D59
:103CB0001C927A1C9146187843463A005946A84708
:103CC0005346002B16D1119B013311934F46D5E576
:103CD000561C434659462020B847230032005C1C3E
:103CE0009D42F5D83D001700E0E701233A002F0080
:103CF0000A9DF4E74A46A9460A9D06E0571C43463A
:103D000059462020C84734003A00661CA542F5D821
:103D10004D469146D7E71C9B1A1D1C921B6899467D
:103D20005346002B00D1013B4E4601E00136130003
:103D30003278002A02D05A1E002BF7D14B46F21AD5
:103D400010928023DB0026001E401C4203D0524507
:103D500001D95346109302231A0022400B922342AA
:103D600005D03A0037004C46A946554620E03A00B7
:103D7000109B5F46B3462E0006E0551C43463900B3
:103D80002020B04723002A005C1C0A999942F4D8ED
:103D900035005E46BB46109437004C46A946554652
:103DA00006E01D000134561C43465946C847320000
:103DB0002078002804D0002FF4D06B1E002DF0D105
:103DC00017004D460B9B002B03D1119B0133119320
:103DD00054E50A9F109B06E0561C43465946202096
:103DE000A847230032005C1C9F42F5D81700ECE77F
:103DF00021231C431C9B1A1D1C921B6800930594D5
:103E00000823049353460393102302930023019342
:103E100043463A0059462800FFF79CF80700119BDB
:103E2000013311932AE57C1C43463A00594625206C
:103E3000A847119B0133119327001FE57C1C4346C3
:103E40003A005946A847119B01331193270015E505
:103E50000A4B9A4610E5AA46474502D343465A1EE6
:103E600000E03A00434659460020D047380013B0DE
:103E7000F0BCBB46B246A946A046F0BD612D00107D
:103E80000CB410B584B00A0006AC08CC03940094BE
:103E900001000448FFF7E2FC04B010BC08BC02B00B
:103EA0001847C046592D001000B585B00290039107
:103EB0000121009313004A4202A90248FFF7CEFCF9
:103EC00005B000BD632D001001480421014B1847C7
:103ED000B0020020F93E001010B5010018231B8825
:103EE00014221088984710BD10B5010018231B88B4
:103EF00016221088984710BDF0B5C64600B50700D9
:103F00000E0000250123984600E00135B5420AD293
:103F1000AC003C192068FFF7DFFF20600028F4D1D7
:103F200000239846F1E7404680BCB846F0BD00004B
:103F3000124A936F9B0815D29066D166002905D06E
:103F4000FFE7FFE7FFE7516F106F704704B580216F
:103F50000906C2175140002800D0C84300F08CFF6A
:103F6000002104BDF0B5146E556E576F166FFFF744
:103F7000E3FF1466556657671667F0BD000000D072
:103F8000114A936F9B0813D210665166002905D021
:103F9000FFE7FFE7FFE7516F106F704704B5002898
:103FA00001D00020C04300F067FF002104BDC046DF
:103FB000F0B5146E556E576F166FFFF7E5FF146678
:103FC000556657671667F0BD000000D094464A4A10
:103FD000926F9208624601D228E0C046F0B5464E84
:103FE000346E756E776F366F00F020F89446424A53
:103FF00014665566576716676246F0BD94463E4A9A
:10400000926F9208624601D254E0C046F0B53A4E33
:10401000346E756E776F366F00F04CF89446364A02
:1040200014665566576716676246F0BD002B24DBA1
:1040300011D000293EDA00B5C943404200D1013118
:1040400000F038F8C943404200D10131DB4352420D
:1040500000D1013300BD002AEBD1002801D1002995
:1040600005D00020C90FC90701D1C043410800B5E0
:1040700000F0FAFE0022002300BD00B500290ADB93
:10408000DB43524200D1013300F014F8C9434042EF
:1040900000D1013100BDC943404200D10131DB43B1
:1040A000524200D1013300F005F8DB43524200D107
:1040B000013300BD002923D1002B18D1002A0CD0D8
:1040C000BC460D4F38667A6600210023FFE7FFE704
:1040D000FFE77A6F386F67467047002801D00748BE
:1040E000010000B500F0C0FE0022002300BD020068
:1040F0000B00002000217047000000D0FFFFFFFFF1
:10410000002B00D0BFE0130C28D1002AE7D080B4E8
:10411000114F39667A66FFE7FFE730B4040C7B6F16
:10412000396F1B0423433B667A66FFE7FFE7FFE72F
:10413000C04684B27B6F3D6F1B0423433B667A66A7
:10414000FFE7FFE7C04600232C042D0C7A6F386F81
:1041500000196941B0BC7047000000D0F0B594462A
:104160000025140E01D112020835140F01D11201DD
:104170000435940F01D192000235D40F01D15200C1
:104180000135D40B0134254F7C66254C3C660E0C62
:1041900093B2FFE7FFE7FFE73C6F6643360C770318
:1041A000BE467343DF0B5B04C01AB941130C734363
:1041B000DB18C91ACE086643360CB64493B2734373
:1041C0001F0F1B01C01AB941130C73431F0B1B05B2
:1041D000C01AB941860D8F023E436643360C092D45
:1041E00024DB520A7243801A7703460A6643360C70
:1041F00016235B1BDE40DF40BF1964466643821B0B
:104200007046043506330100D940A840C01900D3D8
:104210000131A24206D20023F0BD0000000000D010
:10422000FFFFFFFF121B0130F3D3F1E709277F1BCC
:10423000FE406446A2B27243801A00D20139220CB9
:104240007243130C1204821A99410B007046043514
:1042500013370100F940A840801900D30131002B29
:1042600002D1A2420AD2F0BD013000D30131121BAB
:10427000FAD2013BF8D1A24200D2F0BD013000D306
:104280000131121BF7E7F0B51C0C00D080E00CB434
:1042900000251C0A04D11B02160E334312020835F6
:1042A0001C0B04D11B01160F3343120104359C0B68
:1042B00004D19B00960F334392000235DC0B02D1F0
:1042C00092185B4101351C00971864410134464F38
:1042D0007C66464C3C660E0CFFE7FFE7FFE7C046F6
:1042E0003C6F6643360C7703BE4697B27743C01BDC
:1042F00000D20139C01B00D201399FB27743C91BDC
:10430000C91B170C77437E04FF0B801BB941CE08F5
:104310006643360C0C2D33DBB644120B1F053A43B3
:104320001B0B97B27743C01B00D201399FB2774372
:10433000C91B170C77433E043F0C801BB941860D07
:104340008F023E43664329277F1BFE400C3D774684
:10435000AF40BF1930BCA2B2ABB272437343801AF4
:104360009941220C7243130C1204801A99410200E5
:104370000B000137001BA941F9D2781E0021F0BDC6
:104380000C277F1BFE4077467F0BAF40FF19E0E70D
:1043900000245D1C07D0144F7D663966FFE7FFE7F8
:1043A000FFE7FFE73C6F95B29EB265436643401B53
:1043B000B141150C1E0C6543664336042F0C3E4379
:1043C0002D04401BB141994204D202000B00200091
:1043D0000021F0BD01D19042F7D3801A99410134F8
:1043E0009942F2D3F6E70000000000D0FFFFFFFF84
:1043F00048404140484018B4134B5B68019308BDE6
:1044000018B4114B1B68019308BD94460F4A926F74
:10441000920805D2624618B40B4BDB68019308BDC5
:104420000A4AF0B5146E556E576F166F6246FFF765
:10443000F2FF064A1466556657671667F0BD18B452
:10444000014B9B68019308BD14050020000000D0BB
:10445000FFB550404240504059404B40594000E069
:10446000FFB5154F4C00640D03D0BC4204D10C03C2
:1044700014D80020090D09055C00640D03D0BC426E
:1044800004D11C030AD800221B0D1B0501264B403A
:1044900009D44B4003D58B4200D18242FFBD9942E3
:1044A000FCD19042FFBD0B43DB1803431343F5D00F
:1044B000C9434918FFBD0000FF07000000B5FFF722
:1044C000CFFF804100BDC04600B5FFF7C9FF01D94D
:1044D000002000BD012000BD00B5FFF7B9FF01D9E4
:1044E000002000BD012000BD00B5FFF7B1FF8041F5
:1044F00000BD012040054A00121804D85A001218C5
:1045000001D800207047012070470020704700004C
:104510000021002805D17047C1174840401AFAD041
:10452000C90713B5064B1B6898470CBC441CA24036
:104530001005120B0349091B09051943114310BD4E
:10454000140600201F04000010B54C00620D8023EB
:10455000D218DB00D21A5B057E2A10DD9E3A13DAF0
:10456000CC170903490819435242D1406400013471
:104570001532202A05DAD0400843604310BD0020E0
:1045800010BD0846604310BDC80FC018013810BDEB
:1045900018B4024B5B6A019308BD000014050020AB
:1045A00010B50148FEF7C0FBF85E001070B513238C
:1045B0001C78012C14D0012C14DC022C02DC1F4AC4
:1045C0001F4B9A641F48FFF787FC1F4B186070BD94
:1045D00099001E481A4A885001331F2BF8D9EAE780
:1045E0000023FAE71A48FFF77FFC05001948FFF798
:1045F0007BFC023803789B007F2B19DD8022290089
:104600000F4800F0BFF8022CD7D1134B1A88B523FE
:104610001B029A4209D1114B1A88114B9A4204D1BC
:10462000104B1A88104B9A42C7D00020FEF77CFB33
:104630000E4B0F4A32210F48FEF7DCFA7946001084
:10464000140500204C33000014060020A145001082
:10465000534400005346000054380000D83800008E
:10466000494600009C38000059460000105F0010C9
:10467000C85F0010645F001007B56046002800D1D5
:1046800000BE01880A0A0230DF2AFAD1C9B28208C4
:1046900004D3028840880004104300E00068024A06
:1046A0005050039007BD00001405002051434343C0
:1046B000C9188C46110C83B24B4310B4040C6143EF
:1046C00092B280B2504362431C041B0C001910BC10
:1046D00059411304120CC018514161447047000045
:1046E00010B50148FEF720FBD45B001070B5132312
:1046F0001E781848FFF7F8FB0500012E11D0012E97
:1047000009DDAB1E1B789B007F2B1DDD802229005D
:10471000114800F037F81148FFF7DEFB104B186026
:1047200070BD542201000C4800F02CF8002300E07A
:1047300001331F2BE3D89A00074C1259002AF7D1F6
:104740009A0008481051F3E7074B084A42210848ED
:10475000FEF750FA53460000180600204C330000C4
:1047600014060020E1460010DC5F001074600010A9
:104770001060001001480421014B1847C0020020BE
:10478000F93E0010014B5B6818470000C002002092
:1047900010B50300080011001B68984710BD000009
:1047A000F8B507000D001600437D002B02D0002451
:1047B00000200CE003681100280098472DE03B7DA5
:1047C00010E0022115483B689847601C0134B44250
:1047D00014DA002CF3DD2B19013B1B780D3B5A42F8
:1047E0005341DBB22A5D0A2AF0D1002BEED1A04260
:1047F000E7DA211A28183B689847E2E7B04203DA63
:10480000311A28183B689847002E06DDAD19013D86
:104810002B780D3B5A4253413B75F8BD00610010A7
:1048200070B505000368002B16D00C4B1C6805E022
:10483000290004C92000FFF7B3FF2469002C09D028
:104840002368002BF9D0064B1B68002BF0D0A34245
:10485000F3D1EDE700232B6070BDC046E4040020D7
:10486000E804002070B505000C000B68802B05D013
:1048700021684B1C23606418257170BD0800FFF788
:10488000CFFFF5E710B5FDF74DFB02000B1E0BDB6C
:104890000D48002112184B41002B0BDB002B0DDBC8
:1048A0000A4800F0F1FA10BD094B0A4A3F210A48B4
:1048B000FEF7A0F901225242084BEFE7044B054AEC
:1048C0003F210548FEF796F940420F00E80200201C
:1048D00080520010E86000109C520010FFFFFF7F24
:1048E00010B5024800F0B8FA10BDC046E80200203A
:1048F000F0B5CE46474680B583B006000D00904621
:104900001C00FFF7BFFF81466B1C05D0002C08D0B0
:10491000194F1A4B1C6807E0300000F06DFA0500D3
:10492000F4E7174FF5E72469002C17D02368002B14
:10493000F9D0144B1B68002B01D0A342F3D12A00FD
:1049400031002000B8474346002BECD06B46D91D00
:104950000A230B7001222000B847E4E74B46002BE6
:1049600007D16B1E9D41E8B203B0C0BCB946B0464A
:10497000F0BDFFF7B5FFF4E791470010E404002015
:10498000A1470010E8040020094A01E010331A0092
:104990001368002B08D08342F8D1002907D103699E
:1049A00013600023036102E0002900D0106070470B
:1049B000E404002010B5064B1C6801E09847246908
:1049C000002C03D06368002BF8D1F8E710BDC04677
:1049D000E404002070B5050000F00EFA0400002386
:1049E000012201002800FFF783FFFFF7E3FF20000B
:1049F00070BD000070B5A2B004000E00FFF742FFCA
:104A00000500002301933300220001A90848FFF7A5
:104A10004BFA040001A8FFF703FFFFF7CBFF002DBF
:104A200002D1200022B070BDFFF75AFFF9E7C0465F
:104A3000654800100FB400B583B004A901C9019105
:104A4000FFF7D8FF03B008BC04B0184710B500F05A
:104A5000F9F8012010BD0000F0B583B005000E008C
:104A600000240FE06B46D91D0D230B700020002899
:104A700016D193699B06FCD40B7813600130013189
:104A8000F5E70134B44219DA0D4B1A682F5D0D4B6E
:104A9000D31859424B415B000B495B5EBB42E1D0EE
:104AA0006B46D91D0F7000200028EAD193699B0640
:104AB000FCD40B78136001300131F5E703B0F0BD91
:104AC0003C0700200080FCBF38070020F0B583B011
:104AD00006000F00002504E06B4607331B782B709F
:104AE0002500BD4215DA174B1A689369102421007E
:104AF00019401C420DD16C1C75196B46D81D00293C
:104B0000EAD19369DB06FCD41368037001310130EC
:104B1000F5E70D4B1B68002B0CD00A4B1A6850238D
:104B2000936311003431536B38221A4080235B01A8
:104B30000B431A60002D02D0280003B0F0BD033DE6
:104B4000FAE7C0463C0700207404002010B5064B6D
:104B50001B68002B06D0054A126800219163044AA5
:104B60001068984710BDC046740400203C07002020
:104B70007804002070B504000E001C4B1B681C4A12
:104B800098184242504114300500002C03D0194AB5
:104B90001268002A06D0002C19D0164B1C60164B48
:104BA0001E6070BD1549FCF7A3F901212800FCF730
:104BB0008FF90E4B1A685023936311003431536BF5
:104BC00038221A4080235B010B431A60E5E7094A4B
:104BD0001268002AE1D000229A6300212800FCF725
:104BE00077F906492800FCF7ADF9D6E73C07002025
:104BF0000080FCBF74040020780400204D4B00109E
:104C000070B50D001C000D4B1860002A0BDA002C4B
:104C10000EDA0A4B18682900FDF784FD01210848C7
:104C2000FFF7B2FE70BD02211000FCF753F8EEE76B
:104C300002212000FCF74EF8EBE7C0463C070020BD
:104C4000D002002010B5064B1B78064B1B78E121E3
:104C50000123002249020448FFF7D2FF10BDC046DD
:104C6000F8610010FC6100100040034002888023BE
:104C70005B019A4219D20223C356013BDBB20B2BD4
:104C800015D80323C356013BDBB21E2B11D8037981
:104C9000062B10D84379172B0FD883793B2B0ED8CE
:104CA000C3793B2B0DD8012000E000207047002085
:104CB000FCE70020FAE70020F8E70020F6E70020F4
:104CC000F4E70020F2E70000024BDB685B080120FC
:104CD0001840704700C0054010B50920FDF766FE7A
:104CE000002813D080231B020E4A13600E4A136063
:104CF0000E4B9A6880231B029343F9D1013880231D
:104D00005B02984208D20A4B186010BD094B0A4A50
:104D100019210A48FDF76EFF094B074A242107486D
:104D2000FDF768FF00E0004000F0004000C00040D8
:104D300000C0054044610010D061001054610010B3
:104D4000B061001010B50400FFF790FF002829D0D3
:104D5000154B0022DA60FFF7B7FF0028FBD10022D5
:104D6000A35E1B030222A256120213430322A25681
:104D700013430D4A53600423E3561B060521615675
:104D800009040B430621615609020B4307216156B2
:104D90000B4393601023D3600F3BD360FFF794FF66
:104DA0000028FBD010BDC04600C0054070B504000F
:104DB000FFF78AFF00281CD00E4AD36992691D0EA6
:104DC0000721294021711D0C1F210D4065711E0A0C
:104DD0003F252E40A6715BB22B40E371130B1B05E0
:104DE0001B0D2380150A0F232B40A37052B20A40DB
:104DF000E27070BD00C0054010B583070AD0030003
:104E0000032102E001330B4205D01A78002AF9D1C0
:104E1000181A10BD030019680C4A0D4C8A188A43F1
:104E200022420FD15968094A04338A188A43224220
:104E300008D15968054A04338A188A432242F1D0BE
:104E400000E001331A78002AFBD1E1E7FFFEFEFE05
:104E500080808080F8B5C04601B40248844601BC19
:104E6000604700BFC901002001B40248844601BC6C
:104E7000604700BF1502002001B40248844601BC0F
:104E8000604700BF1502002001B40248844601BCFF
:084E9000604700BF95010020FE
:104E980075735F73696E63655F626F6F74203C3D05
:104EA80020494E5436345F4D41580000433A2F5044
:104EB800726F6772616D2046696C65732F526173FA
:104EC8007062657272792050692F5069636F205340
:104ED800444B2076312E352E312F7069636F2D7338
:104EE800646B2F7372632F636F6D6D6F6E2F7069B4
:104EF800636F5F626173652F696E636C7564652F9C
:104F08007069636F2F74797065732E6800000000F4
:104F1800535441525400000025642F2564203D203D
:104F280025642072656D61696E6465722025640A66
:104F3800000000000D257320202020202000000004
:104F4800E707061C030C39007570646174655F75AA
:104F5800735F73696E63655F626F6F740000000052
:104F680064656C7461203E3D202D32303438202633
:104F7800262064656C7461203C3D20323034362034
:104F8800262620212864656C74612026203129009A
:104F9800433A2F50726F6772616D2046696C657372
:104FA8002F5261737062657272792050692F50694F
:104FB800636F2053444B2076312E352E312F706984
:104FC800636F2D73646B2F7372632F7270325F631C
:104FD8006F6D6D6F6E2F68617264776172655F695E
:104FE80072712F6972712E630000000021286465B8
:104FF8006C7461203E3E20313175290063757272F0
:10500800656E74203D3D205F5F756E68616E646CEF
:1050180065645F757365725F697271207C7C20635B
:10502800757272656E74203D3D2068616E646C65B2
:10503800720000006972715F68616E6465725F6317
:105048006861696E5F667265655F736C6F745F68CF
:10505800656164203E3D2030000000007674616286
:105068006C655F68616E646C6572203D3D205F5FB2
:10507800756E68616E646C65645F757365725F698F
:1050880072710000212828282875696E747074725E
:105098005F7429767461626C655F68616E646C65C3
:1050A8007229202D20282875696E747074725F74B7
:1050B800296972715F68616E646C65725F636861AB
:1050C800696E5F736C6F747329202D2031292573E5
:1050D800697A656F66287374727563742069727172
:1050E8005F68616E646C65725F636861696E5F7347
:1050F8006C6F74292900000030783163203D3D2011
:10510800282A696E7374293E3E313175000000000B
:1051180021657863657074696F6E207C7C20657882
:1051280063657074696F6E203D3D206E756D202B30
:1051380020565441424C455F46495253545F4952A8
:105148005100000066616C736500000069735F734D
:1051580068617265645F6972715F7261775F6861C7
:105168006E646C657228736C6F745F68616E646CD2
:1051780065722900657863657074696F6E00000058
:10518800666F756E640000006972715F6164645FC8
:105198007461696C5F746F5F667265655F6C697373
:1051A80074000000696E736572745F6272616E6389
:1051B800685F616E645F6C696E6B00006972715F35
:1051C80072656D6F76655F68616E646C657200000C
:1051D8006D616B655F6272616E6368007265736FA3
:1051E8006C76655F6272616E636800006972715FF8
:1051F8007365745F6578636C75736976655F6861FC
:105208006E646C6572000000746F74616C0000005D
:10521800433A2F50726F6772616D2046696C6573EF
:105228002F5261737062657272792050692F5069CC
:10523800636F2053444B2076312E352E312F706901
:10524800636F2D73646B2F7372632F636F6D6D6F54
:105258006E2F7069636F5F73796E632F6D757465F8
:10526800782E63006D74782D3E636F72652E7370AF
:10527800696E5F6C6F636B0075735F73696E6365EE
:105288005F626F6F74203C3D20494E5436345F4D49
:1052980041580000433A2F50726F6772616D204683
:1052A800696C65732F5261737062657272792050F0
:1052B800692F5069636F2053444B2076312E352E69
:1052C800312F7069636F2D73646B2F7372632F6353
:1052D8006F6D6D6F6E2F7069636F5F626173652F9D
:1052E800696E636C7564652F7069636F2F7479706C
:1052F80065732E68000000006C6F636B5F69735FF5
:105308006F776E65725F69645F76616C6964286D3A
:1053180074782D3E6F776E65722900006D74782D54
:105328003E656E7465725F636F756E740000000091
:105338006D757465785F6578697400006D7574655E
:10534800785F656E7465725F626C6F636B5F756EB4
:1053580074696C0072742D3E616C61726D5F696472
:10536800203D3D2069640000433A2F50726F6772F8
:10537800616D2046696C65732F5261737062657246
:1053880072792050692F5069636F2053444B2076FF
:10539800312E352E312F7069636F2D73646B2F7327
:1053A80072632F636F6D6D6F6E2F7069636F5F74BB
:1053B800696D652F74696D652E6300006964202628
:1053C80026206964203C3D20706F6F6C2D3E686517
:1053D80061702D3E6D61785F6E6F646573000000CB
:1053E8006964202626206964203C3D206865617038
:1053F8002D3E6D61785F6E6F64657300433A2F5080
:10540800726F6772616D2046696C65732F526173A4
:105418007062657272792050692F5069636F2053EA
:10542800444B2076312E352E312F7069636F2D73E2
:10543800646B2F7372632F636F6D6D6F6E2F70695E
:10544800636F5F7574696C2F696E636C7564652F23
:105458007069636F2F7574696C2F70686561702E41
:1054680068000000706172656E745F696400000016
:105478006368696C645F696400000000706172654C
:105488006E745F696420213D206368696C645F699C
:10549800640000002170685F636F6E7461696E73E9
:1054A8005F6E6F646528706F6F6C2D3E6865617004
:1054B8002C2072657573655F6964290072656D6F6C
:1054C8007665645F6964203D3D206E6578745F6928
:1054D8006400000063616C6C6261636B0000000033
:1054E800706F6F6C2D3E616C61726D5F696E5F707D
:1054F800726F6772657373203D3D206D616B655FE8
:105508007075626C69635F69642869645F6869675C
:10551800682C206E6578745F6964290069642026A8
:1055280026202170685F636F6E7461696E735F6EA9
:105538006F646528686561702C2069642900000023
:1055480021686561702D3E667265655F7461696C7E
:105558005F69640064656661756C745F616C617233
:105568006D5F706F6F6C5F696E697469616C697A81
:105578006564282900000000616C61726D5F6964D0
:1055880020213D20706F6F6C2D3E616C61726D5FE4
:10559800696E5F70726F6772657373007263000083
:1055A800417474656D7074656420746F20736C65E4
:1055B800657020696E73696465206F6620616E206E
:1055C800657863657074696F6E2068616E646C6578
:1055D800723B2075736520627573795F77616974B2
:1055E80020696620796F75206D757374000000005E
:1055F800726570656174696E675F74696D65725F05
:1056080063616C6C6261636B00000000616C6172C5
:105618006D5F706F6F6C5F63616E63656C5F616C0B
:1056280061726D007570646174655F75735F73692D
:105638006E63655F626F6F7400000000616C617279
:105648006D5F706F6F6C5F616C61726D5F63616CD1
:105658006C6261636B0000006765745F656E7472ED
:1056680079000000616C61726D5F706F6F6C5F67CD
:1056780065745F64656661756C7400006765745F66
:10568800656E7472795F69645F68696768000000B5
:1056980070685F667265655F6E6F64650000000024
:1056A80070685F6164645F6368696C645F6E6F648F
:1056B8006500000070685F696E736572745F6E6F75
:1056C8006465000070685F6765745F6E6F6465008D
:1056D8006164645F616C61726D5F756E6465725F51
:1056E8006C6F636B000000004861726477617265DB
:1056F80020616C61726D20256420616C7265616443
:105708007920636C61696D656400000074696D657A
:10571800725F68772D3E696E74732026203175207C
:105728003C3C20616C61726D5F6E756D000000001D
:10573800433A2F50726F6772616D2046696C6573CA
:105748002F5261737062657272792050692F5069A7
:10575800636F2053444B2076312E352E312F7069DC
:10576800636F2D73646B2F7372632F7270325F6374
:105778006F6D6D6F6E2F68617264776172655F74AB
:10578800696D65722F74696D65722E630000000083
:1057980068617264776172655F616C61726D5F7375
:1057A80065745F7461726765740000007570646188
:1057B80074655F75735F73696E63655F626F6F743D
:1057C8000000000025732025642025732025643AF5
:1057D800253032643A253032642025640000000008
:1057E80053756E64617900004D6F6E6461790000D5
:1057F80054756573646179005765646E6573646197
:1058080079000000546875727364617900000000C3
:1058180046726964617900005361747572646179D4
:10582800000000004A616E75617279004665627217
:1058380075617279000000004D61726368000000B4
:10584800417072696C0000004D6179004A756E659F
:10585800000000004A756C7900000000417567750A
:105868007374000053657074656D626572000000A2
:105878004F63746F626572004E6F76656D62657214
:1058880000000000446563656D62657200000000F9
:10589800E8570010F0570010F85700100058001093
:1058A8000C58001018580010205800102C580010E0
:1058B8003458001040580010485800105058001034
:1058C800545800105C580010645800106C580010B0
:1058D80078580010805800108C580010726F6F7440
:1058E8005F696400433A2F50726F6772616D20469A
:1058F800696C65732F52617370626572727920509A
:10590800692F5069636F2053444B2076312E352E12
:10591800312F7069636F2D73646B2F7372632F63FC
:105928006F6D6D6F6E2F7069636F5F7574696C2F23
:1059380070686561702E63002170685F6765745FC9
:105948006E6F646528686561702C20726F6F745F74
:105958006964292D3E7369626C696E6700000000F6
:105968002170685F6765745F6E6F6465286865613C
:10597800702C20726F6F745F6964292D3E7061729C
:10598800656E74006E65775F7375625F74726565C6
:1059980020213D20686561702D3E726F6F745F69CC
:1059A8006400000070685F72656D6F76655F616E98
:1059B800645F667265655F6E6F64650070685F72CC
:1059C800656D6F76655F616E795F6865616400001B
:1059D80070685F6164645F6368696C645F6E6F645C
:1059E8006500000070685F6765745F6E6F646500CE
:1059F8007372635F66726571203E3D2066726571E1
:105A080000000000433A2F50726F6772616D2046A4
:105A1800696C65732F526173706265727279205078
:105A2800692F5069636F2053444B2076312E352EF1
:105A3800312F7069636F2D73646B2F7372632F72CC
:105A480070325F636F6D6D6F6E2F6861726477611E
:105A580072655F636C6F636B732F636C6F636B73DB
:105A68002E630000636C6F636B5F636F6E666967BC
:105A78007572650076636F5F66726571203E3D20C2
:105A8800285049434F5F504C4C5F56434F5F4D4938
:105A98004E5F465245515F4B485A202A204B485A80
:105AA800292026262076636F5F66726571203C3D4B
:105AB80020285049434F5F504C4C5F56434F5F4D31
:105AC80041585F465245515F4B485A202A204B485F
